:020000040000FA
:100000008316851085150030860083120930A00004
:1000100085018601851D0A2820082F208600851469
:10002000192085102220A00B0C2820082F208600E4
:100030003A284B30A200FF30A100A10B1D28A20BD3
:100040001D2808000230A300FF30A200FF30A100ED
:10005000A10B2828A20B2628A30B2428080082071E
:100060003F3406345B344F3466346D347D340734AA
:100070007F346F3486170830A4002220A40B3D285B
:020080008613E5
:00000001FF
